:020000040800F2
:1000000000000520B91E000821070008230700088A
:10001000250700082707000829070008000000003E
:100020000000000000000000000000002B07000896
:100030002D070008000000002F0700083107000806
:10004000091F0008091F0008091F0008091F0008F0
:10005000091F0008091F0008091F0008091F0008E0
:10006000091F0008091F0008091F0008091F0008D0
:10007000091F0008091F0008091F0008091F0008C0
:10008000091F0008091F0008091F0008091F0008B0
:10009000091F0008091F0008091F0008091F0008A0
:1000A000091F0008091F0008091F0008091F000890
:1000B000091F0008091F0008091F0008091F000880
:1000C000091F0008091F0008091F0008091F000870
:1000D000091F0008091F0008091F0008091F000860
:1000E000091F0008091F0008091F0008091F000850
:1000F000091F0008091F0008091F0008091F000840
:10010000091F0008091F0008091F0008091F00082F
:10011000091F0008091F0008091F0008091F00081F
:10012000091F0008091F0008091F0008091F00080F
:10013000091F0008091F0008091F0008091F0008FF
:10014000091F0008091F0008091F0008091F0008EF
:10015000091F0008091F0008091F0008091F0008DF
:10016000091F0008091F0008091F0008091F0008CF
:10017000091F0008091F0008091F000800000000EF
:10018000091F0008091F0008091F0008091F0008AF
:10019000091F0008091F0008091F0008091F00089F
:1001A000091F0008091F0008091F0008091F00088F
:1001B000091F0008091F0008091F0008091F00087F
:0801C000091F0008091F0008D7
:1001C80010B5054C237833B9044B13B10448AFF389
:1001D80000800123237010BD0C00002000000000E7
:1001E800641F000808B5034B1BB103490348AFF36C
:1001F800008008BD0000000010000020641F0008F7
:1002080053B94AB9002908BF00281CBF4FF0FF3175
:100218004FF0FF3000F074B9ADF1080C6DE904CE71
:1002280000F006F8DDF804E0DDE9022304B07047C9
:100238002DE9F047089D04468E46002B4DD18A4291
:10024800944669D9B2FA82F252B101FA02F3C2F1C4
:10025800200120FA01F10CFA02FC41EA030E944055
:100268004FEA1C48210CBEFBF8F61FFA8CF708FB76
:1002780016E341EA034306FB07F199420AD91CEB4E
:10028800030306F1FF3080F01F81994240F21C8180
:10029800023E63445B1AA4B2B3FBF8F008FB1033C8
:1002A80044EA034400FB07F7A7420AD91CEB0404FD
:1002B80000F1FF3380F00A81A74240F207816444CD
:1002C800023840EA0640E41B00261DB1D440002352
:1002D800C5E900433146BDE8F0878B4209D9002DB6
:1002E80000F0EF800026C5E9000130463146BDE840
:1002F800F087B3FA83F6002E4AD18B4202D38242AA
:1003080000F2F980841A61EB030301209E46002D58
:10031800E0D0C5E9004EDDE702B9FFDEB2FA82F2AD
:10032800002A40F09280A1EB0C014FEA1C471FFA0B
:100338008CFE0126200CB1FBF7F307FB131140EAF2
:1003480001410EFB03F0884208D91CEB010103F1BF
:10035800FF3802D2884200F2CB804346091AA4B281
:10036800B1FBF7F007FB101144EA01440EFB00FE55
:10037800A64508D91CEB040400F1FF3102D2A645BA
:1003880000F2BB800846A4EB0E0440EA03409CE759
:10039800C6F12007B34022FA07FC4CEA030C20FA06
:1003A80007F401FA06F31C43F9404FEA1C4900FA26
:1003B80006F3B1FBF9F8200C1FFA8CFE09FB1811A3
:1003C80040EA014108FB0EF0884202FA06F20BD916
:1003D8001CEB010108F1FF3A80F08880884240F266
:1003E8008580A8F102086144091AA4B2B1FBF9F0AA
:1003F80009FB101144EA014100FB0EFE8E4508D9A5
:100408001CEB010100F1FF346CD28E456AD9023829
:10041800614440EA0840A0FB0294A1EB0E01A1420E
:10042800C846A64656D353D05DB1B3EB080261EB7C
:100438000E0101FA07F722FA06F3F1401F43C5E956
:10044800007100263146BDE8F087C2F12003D8408C
:100458000CFA02FC21FA03F3914001434FEA1C47CE
:100468001FFA8CFEB3FBF7F007FB10360B0C43EAC0
:10047800064300FB0EF69E4204FA02F408D91CEB70
:10048800030300F1FF382FD29E422DD9023863446E
:100498009B1B89B2B3FBF7F607FB163341EA03410E
:1004A80006FB0EF38B4208D91CEB010106F1FF385D
:1004B80016D28B4214D9023E6144C91A46EA004654
:1004C80038E72E46284605E70646E3E61846F8E6E6
:1004D8004B45A9D2B9EB020864EB0C0E0138A3E72F
:1004E8004646EAE7204694E74046D1E7D0467BE710
:1004F800023B614432E7304609E76444023842E788
:10050800704700BF10B584B0002400940194029491
:10051800039400F0F5F901238DF800308DF80140BF
:1005280001941F228DF8082087228DF809208DF864
:100538000A408DF80B408DF80C308DF80D308DF891
:100548000E408DF80F40684600F0F8F9042000F0DE
:10055800E5F904B010BD000030B589B0002403945B
:100568000494059406940794164B1A6B42F0800283
:100578001A631A6B02F080020092009A1A6B42F01A
:1005880001021A631A6B02F001020192019A1A6BB6
:1005980042F002021A631B6B03F002030293029BF0
:1005A800094D22468021284601F0D2FB802303937F
:1005B800012304930594069403A9284601F0CCFA74
:1005C80009B030BD003802400004024072B6FEE7B0
:1005D80008B50B480B4B03604FF4E133436000232D
:1005E8008360C36003610C2242618361C36103625B
:1005F800436200F062FC00B908BDFFF7E7FF00BFE7
:10060800B0000020004C004008B50B480B4B0360BD
:100618004FF4E133436000238360C36003610C221D
:1006280042618361C3610362436200F046FC00B922
:1006380008BDFFF7CBFF00BF2800002000440040A2
:1006480000B595B03022002108A801F07FFC0023F6
:1006580003930493059306930793214B1A6C42F076
:1006680080521A641B6C03F080530193019B1D4A4E
:10067800136823F4404343F480431360136803F47E
:1006880040430293029B012308934FF4A02309934C
:1006980002230E934FF480020F920C221092322202
:1006A80011921293139308A800F038FC90B901F046
:1006B8005FFB88B90F230393022304930023059358
:1006C80006930793012103A800F094FE30B915B0F2
:1006D8005DF804FBFFF77AFFFFF778FFFFF776FF77
:1006E800003802400070004008B5FFF70BFF01F02A
:1006F800A3FBFFF7A5FFFFF72FFFFFF769FFFFF742
:1007080083FF8021034801F029FB642001F0B2FB3C
:10071800F7E700BF00040240FEE7FEE7FEE7FEE75A
:10072800FEE770477047704708B501F091FB08BDB8
:1007380082B00A4B1A6C42F080521A641A6C02F0AA
:1007480080520092009A5A6C42F480425A645B6C60
:1007580003F480430193019B02B0704700380240C4
:1007680010B5AAB004460021259126912791289119
:100778002991842204A801F0E9FB23682E4A9342B8
:1007880004D02E4A93422CD02AB010BD4FF40073E7
:10079800049304A800F00AFF00BB294B1A6C42F42A
:1007A80000221A641A6C02F400220092009A1A6B52
:1007B80042F001021A631B6B03F001030193019BD2
:1007C80003232593022226920022279228930823A6
:1007D800299325A91B4801F0BFF9D5E7FFF7F6FED5
:1007E800DBE78023049304A800F0E0FE08BB144B69
:1007F8001A6C42F400321A641A6C02F40032029243
:10080800029A1A6B42F001021A631B6B03F0010390
:100818000393039B0C2325930223269300232793FA
:10082800032328930723299325A9064801F094F95F
:10083800AAE7FFF7CBFEDAE7004C0040004400408F
:1008480000380240000002400649CB6823F4E06308
:100858001B041B0C000200F4E0600343024A1A4325
:10086800CA60704700ED00E00000FA0500B5174BBC
:10087800DB68C3F30223C3F1070CBCF1040F28BFE4
:100888004FF0040C03F1040EBEF1060F14D9033B1C
:100898004FF0FF3E0EFA0CFC21EA0C0199400EFACB
:1008A80003F322EA03031943002807DB0901C9B24D
:1008B800074B19545DF804FB0023E9E700F00F002B
:1008C8000901C9B2034B1954F4E700BF00ED00E079
:1008D80000E400E014ED00E00138B0F1807F0BD2B5
:1008E8004FF0E0235861054AF02182F823100020D8
:1008F800986107221A6170470120704700ED00E0F7
:10090800BFF35F8F044B5A6A22F480325A62002286
:10091800C3F89420704700BF00ED00E040F00100EC
:10092800054BC3F894005A6A42F480325A62BFF306
:100938004F8FBFF36F8F704700ED00E04278164B82
:10094800C3F898200378FBB14368134AC2F89C3077
:10095800017BC37A1B0643EA0173817A43EAC143E8
:10096800417B43EA8143817B43EA4143C17B43EABC
:100978000143417A43EA0123017A43EA41030178BA
:100988000B43C2F8A0307047034B0022C3F89C20E9
:10099800C3F8A020704700BF00ED00E010B5044682
:1009A80083680269134342691343C26913430168A8
:1009B8000868934A024013430B602268536823F483
:1009C8004053E1680B435360A269236A1A432168C4
:1009D8008B6823F4306313438B602368894A9342FE
:1009E80019D0894A934229D0884A93423ED0884AEE
:1009F800934262D0874A934271D0874A934200F06B
:100A08008380864A934200F09480854A934200F09E
:100A1800A58010233AE0834BD3F8903003F003030A
:100A2800032B09D8DFE803F00204AE0601232DE00A
:100A380004232BE0082329E0102327E0794BD3F87F
:100A4800903003F00C030C2B0ED8DFE803F0070DF1
:100A58000D0D090D0D0D9D0D0D0D0B00002315E05D
:100A6800042313E0082311E010230FE06D4BD3F8A3
:100A7800903003F03003202B00F0888019D8002B29
:100A880000F08680102B40F085800423E069B0F5E3
:100A9800004F00F0AB80082B00F20C81DFE813F068
:100AA800E800FB00E6000A01FE000A010A010A014B
:100AB8000101302B70D10823E8E75A4BD3F8903066
:100AC80003F0C003802B69D005D8002B68D0402BD9
:100AD80068D10423DAE7C02B66D10823D6E7514B47
:100AE800D3F8903003F44073B3F5007F5ED006D896
:100AF800002B5DD0B3F5807F5CD10423C6E7B3F546
:100B0800407F59D10823C1E7464BD3F8903003F40E
:100B18004063B3F5006F51D006D8002B50D0B3F521
:100B2800806F4FD10423B1E7B3F5406F4CD1082350
:100B3800ACE73C4BD3F8903003F44053B3F5005F77
:100B480044D006D8002B43D0B3F5805F42D10423AC
:100B58009CE7B3F5405F3FD1082397E7314BD3F8C3
:100B6800903003F44043B3F5004F37D005D8BBB3FA
:100B7800B3F5804F36D1042388E7B3F5404F33D11E
:100B8800082383E7022381E702237FE702237DE727
:100B980000237BE7102379E7102377E7022375E723
:100BA800002373E7102371E710236FE702236DE733
:100BB80000236BE7102369E7102367E7022365E743
:100BC800012363E7102361E710235FE702235DE752
:100BD80000235BE7102359E7102357E7022355E763
:100BE800002353E7102351E710234FE7082B5BD866
:100BF800DFE803F01A343A5A375A5A5A1E0000BF2F
:100C0800F369FFEF00100140004400400048004035
:100C1800004C0040005000400014014000780040A3
:100C2800007C00400038024000F0A0FC00283DD0C5
:100C38006268530803EB4000B0FBF2F0A0F1100229
:100C48004FF6EF739A4233D883B223F00F03C0F301
:100C5800420018432368D860002030E000F096FC7A
:100C6800E4E700F075FBE1E71748E1E7164802E022
:100C780000F07CFC00B3636800EB5300B0FBF3F0BA
:100C8800A0F110024FF6EF739A4217D8236880B28A
:100C9800D860002013E000F079FCEBE700F058FB87
:100CA800E8E74FF40040E6E7012008E0002006E00E
:100CB800012004E0012002E0002000E001200023E0
:100CC800A366E36610BD00BF0024F400436A13F076
:100CD800010F06D00268536823F40033816A0B437E
:100CE8005360436A13F0020F06D00268536823F476
:100CF8008033C16A0B435360436A13F0040F06D074
:100D08000268536823F48023016B0B435360436AE2
:100D180013F0080F06D00268536823F40043416BB0
:100D28000B435360436A13F0100F06D002689368B0
:100D380023F48053816B0B439360436A13F0200FB5
:100D480006D00268936823F40053C16B0B43936089
:100D5800436A13F0400F0AD00268536823F48013E3
:100D6800016C0B435360036CB3F5801F0BD0436ACF
:100D780013F0800F06D00268536823F40023816CB7
:100D88000B43536070470268536823F4C003416CF7
:100D98000B435360EBE72DE9F84305460F4616462B
:100DA8009946DDF820802C68E46937EA04030CBF13
:100DB8004FF0010C4FF0000CB44555D1B8F1FF3F8E
:100DC800F1D001F051F8A0EB090040452ED8B8F158
:100DD800000F2BD02B681A6812F0040FE3D0DA69E1
:100DE80012F4006FDFD04FF400621A622A6852E8EA
:100DF800003F23F4D07342E800310029F6D12A6875
:100E080002F1080353E8003F23F00103083242E8E7
:100E180000310029F3D12023EB67C5F88030C5F8ED
:100E28008430002385F8783003201EE02A6852E8D1
:100E3800003F23F4D07342E800310029F6D12A6834
:100E480002F1080353E8003F23F00103083242E8A7
:100E580000310029F3D12023EB67C5F88030002347
:100E680085F87830032000E00020BDE8F88310B54D
:100E780082B004460023C0F8843000F0F5FF2368F0
:100E88001B6813F0080F0AD12023E367C4F88030E9
:100E980000202066606684F8780002B010BD6FF00C
:100EA8007E430093034600224FF400112046FFF7CB
:100EB80072FF0028E8D00320EFE768B310B50446B6
:100EC800C36F03B32423E3672268136823F0010385
:100ED80013602046FFF762FD012813D0636ABBB98F
:100EE8002268536823F4904353602268936823F080
:100EF8002A0393602268136843F0010313602046B5
:100F0800FFF7B5FF10BD80F87830FFF729FCD9E767
:100F18002046FFF7DBFEE3E701207047002800F0DA
:100F2800FF8170B582B00446036813F0010F29D021
:100F3800954B9B6803F00C03042B1AD0924B9B68CB
:100F480003F00C03082B0FD06368B3F5803F40D043
:100F5800002B54D18C4B1A6822F480321A601A681C
:100F680022F480221A6039E0874B5B6813F4800F03
:100F7800EAD0854B1B6813F4003F03D06368002B4D
:100F880000F0D081236813F0020F74D07E4B9B6869
:100F980013F00C0F5ED07C4B9B6803F00C03082BFE
:100FA80053D0E368002B00F08980774A136843F038
:100FB8000103136000F058FF0546734B1B6813F0DC
:100FC800020F72D100F050FF401B0228F5D9032010
:100FD800ADE16D4A136843F48033136063682BB343
:100FE80000F042FF0546684B1B6813F4003FC9D167
:100FF80000F03AFF401B6428F5D9032097E1B3F5C8
:10100800A02F09D0604B1A6822F480321A601A683F
:1010180022F480221A60E1E75B4B1A6842F48022CE
:101028001A601A6842F480321A60D7E700F01CFF91
:101038000546554B1B6813F4003FA3D000F014FF7E
:10104800401B6428F5D9032071E14F4B5B6813F40A
:10105800800FA6D14C4B1B6813F0020F03D0E36836
:10106800012B40F06181484A136823F0F803216995
:1010780043EAC1031360236813F0080F46D063697D
:1010880083B3414A536F43F00103536700F0ECFE0A
:1010980005463D4B5B6F13F0020F37D100F0E4FEBD
:1010A800401B0228F5D9032041E1374A136823F091
:1010B800F803216943EAC1031360DCE7324A136885
:1010C80023F00103136000F0CFFE05462E4B1B688A
:1010D80013F0020FCFD000F0C7FE401B0228F5D94D
:1010E800032024E1284A536F23F00103536700F0DB
:1010F800BBFE0546244B5B6F13F0020F06D000F0D1
:10110800B3FE401B0228F5D9032010E1236813F031
:10111800040F7DD01C4B1B6C13F0805F1ED11A4B43
:101128001A6C42F080521A641B6C03F080530193CE
:10113800019B0125154B1B6813F4807F10D0A36811
:10114800012B25D0002B3BD10F4B1A6F22F0010247
:101158001A671A6F22F004021A671EE00025E9E7F1
:101168000A4A136843F48073136000F07DFE064654
:10117800064B1B6813F4807FE1D100F075FE801BDD
:101188006428F5D90320D2E00038024000700040FE
:101198006E4A136F43F001031367A36833B300F07B
:1011A80063FE0646694B1B6F13F0020F2FD100F048
:1011B8005BFE801B41F288339842F3D90320B6E0E6
:1011C800052B09D0614B1A6F22F001021A671A6FBA
:1011D80022F004021A67E0E75C4B1A6F42F004023F
:1011E8001A671A6F42F001021A67D6E700F03CFE50
:1011F8000646564B1B6F13F0020F08D000F034FE62
:10120800801B41F288339842F3D903208FE0FDB95F
:10121800A369002B00F08A804C4A926802F00C0205
:10122800082A58D0022B19D0484A136823F0807333
:10123800136000F019FE0446444B1B6813F0007F4E
:1012480047D000F011FE001B0228F5D903206EE0FC
:101258003E4A136C23F080531364D9E73B4A136862
:1012680023F08073136000F0FFFD0546374B1B68C1
:1012780013F0007F06D000F0F7FD401B0228F5D9D7
:10128800032054E0E369226A1343626A43EA821343
:10129800A26A5208013A43EA0243E26A43EA026355
:1012A80043F00053294A5360136843F08073136076
:1012B80000F0DAFD0446254B1B6813F0007F06D1C9
:1012C80000F0D2FD001B0228F5D903202FE00020F2
:1012D8002DE000202BE01D4A5268012B29D002F492
:1012E8008003E1698B4226D102F03F03216A8B42D9
:1012F80023D1616A47F6C0731340B3EB811F1ED137
:1013080002F44031A36A5B08013BB1EB034F18D1EB
:1013180002F07062E36AB2EB036F14D1002006E0BA
:1013280001207047012002E0012000E0002002B007
:1013380070BD0120FBE70120F9E70120F7E7012054
:10134800F5E70120F3E70120F1E700BF003802408C
:1013580008B5254B9B6803F00C03042B3FD0082BE2
:101368003FD1214B5A6802F03F025B6813F4800FAB
:1013780012D01D4B5968C1F388111C480023A1FBEA
:101388000001FEF73DFF184B5B68C3F301430133CF
:101398005B00B0FBF3F025E0134B5968C1F3881CE0
:1013A8004FEA4C11B1EB0C006EEB0E0E4FEA8E13A8
:1013B80043EA90638101091A63EB0E03DB0043EAF9
:1013C8005173C90011EB0C0C43F10003990200237F
:1013D8004FEA8C2041EA9C51FEF712FFD3E70348FD
:1013E80000E0034808BD00BF0038024040787D0196
:1013F8000024F400002800F0A08070B50D460446D3
:10140800524B1B6803F00F038B420BD24F4A1368F1
:1014180023F00F030B431360136803F00F038B4291
:1014280040F08D80236813F0020F17D013F0040FDB
:1014380004D0474A936843F4E0539360236813F059
:10144800080F04D0424A936843F460439360404ACB
:10145800936823F0F003A1680B439360236813F0AB
:10146800010F31D06368012B20D0022B25D0384AD8
:10147800126812F0020F64D035498A6822F003021C
:1014880013438B6000F0F0FC0646314B9B6803F079
:101498000C036268B3EB820F16D000F0E5FC801BEA
:1014A80041F288339842F0D9032045E0284A12686F
:1014B80012F4003FE0D101203EE0254A126812F004
:1014C800007FD9D1012037E0204B1B6803F00F03C0
:1014D800AB420AD91D4A136823F00F032B4313604C
:1014E800136803F00F03AB422DD1236813F0040FE8
:1014F80006D0174A936823F4E053E1680B439360DE
:10150800236813F0080F07D0114A936823F4604347
:10151800216943EAC1039360FFF71AFF0C4B9B68EC
:10152800C3F303130B4AD35CD8400B4B18600B4B27
:10153800186800F05BFC002070BD01207047012096
:10154800FAE70120F8E70120F6E700BF003C024077
:10155800003802407C1F000808000020040000201A
:10156800014B1868704700BF0800002008B5FFF756
:10157800F7FF044B9B68C3F38223034AD35CD8402C
:1015880008BD00BF003802408C1F000808B5FFF7EF
:10159800E7FF044B9B68C3F34233034AD35CD8404C
:1015A80008BD00BF003802408C1F0008F0B583B0AA
:1015B8000446066816F001060DD0A74B9A6822F477
:1015C80000029A609A68416B0A439A60436B002B49
:1015D80000F039810026256815F4002511D09E4AAF
:1015E800D2F88C3023F44013E16B0B43C2F88C30F3
:1015F800E36BB3F5801F00F02881002B00F02781F2
:101608000025236813F4801F0FD0934AD2F88C303A
:1016180023F44003216C0B43C2F88C30236CB3F5E0
:10162800800F00F0168103B90125236813F0807F2D
:1016380000D0012613F0200F40F01081236813F02A
:10164800100F0CD0844BD3F88C2022F08072C3F892
:101658008C20D3F88C20A16B0A43C3F88C20236814
:1016680013F4804F08D07C4AD2F8903023F44033EA
:10167800616E0B43C2F89030236813F4004F08D012
:10168800754AD2F8903023F44023A16E0B43C2F878
:101698009030236813F4803F08D06F4AD2F8903016
:1016A80023F44013E16E0B43C2F89030236813F41F
:1016B800003F08D0684AD2F8903023F44003216FE5
:1016C8000B43C2F89030236813F0400F08D0624AE9
:1016D800D2F8903023F00303616C0B43C2F89030CA
:1016E800236813F0800F08D05B4AD2F8903023F0BB
:1016F8000C03A16C0B43C2F89030236813F4807F6D
:1017080008D0554AD2F8903023F03003E16C0B43EF
:10171800C2F89030236813F4007F08D04E4AD2F8FC
:10172800903023F0C003216D0B43C2F8903023683A
:1017380013F4806F08D0484AD2F8903023F44073ED
:10174800616D0B43C2F89030236813F4006F08D022
:10175800414AD2F8903023F44063A16D0B43C2F89C
:101768009030236813F4805F08D03B4AD2F8903059
:1017780023F44053E16D0B43C2F89030236813F40F
:10178800005F08D0344AD2F8903023F44043216EE9
:101798000B43C2F89030236813F4800F08D02E4A08
:1017A800D2F8903023F08063A16F0B43C2F89030D9
:1017B800236813F4001F0DD0274AD2F8903023F085
:1017C8000063E16F0B43C2F89030E36FB3F1006F31
:1017D80000F0AA80236813F0080F00D0012513F445
:1017E800802F08D01C4AD2F8903023F04073616FE4
:1017F8000B43C2F89030236813F4000F09D0164A3F
:10180800D2F8903023F08053D4F880100B43C2F8FC
:10181800903026B9236813F0007F00F005810E4A46
:10182800136823F08063136000F01EFB06460A4B22
:101838001B6813F0006F79D000F016FB801B64283A
:10184800F5D90320F3E00126C5E60126D5E60125F2
:10185800D7E60126E7E600BF003802407F4B1A6C46
:1018680042F080521A641B6C03F080530193019B71
:101878007B4A136843F48073136000F0F5FA074657
:10188800774B1B6813F4807F06D100F0EDFAC01B7C
:101898006428F5D90320CAE0704B1B6F13F440731A
:1018A80015D0226B02F440729A4210D06B4B1A6F1B
:1018B80022F44072196F41F480311967196F21F4CD
:1018C800803119671A671B6F13F0010F12D1236B50
:1018D80003F44072B2F5407F1DD0604A936823F448
:1018E800F81393605D490B6F226BC2F30B0213432D
:1018F8000B67A3E600F0B8FA0746584B1B6F13F0C6
:10190800020FE4D100F0B0FAC01B41F288339842CC
:10191800F3D903208BE05148826822F4F812514928
:1019280019400A438260DDE7012553E7236813F075
:10193800010F13D0636B8BB9484AD2F88430D2F8C0
:101948008410606803F4403343EA801301F0706147
:101958000B43A16843EA0173C2F88430236813F487
:10196800002F03D0E26BB2F5801F06D013F4801F5E
:101978001ED0236CB3F5800F1AD1384AD2F88430C0
:10198800D2F88410606803F4403343EA8013E068B7
:1019980043EA006301F0E0410B43C2F88430D2F817
:1019A8008C3023F01F03616A01390B43C2F88C3075
:1019B800236813F0807F11D0284AD2F88400D2F827
:1019C8008410666823691B0443EA861300F070607C
:1019D800034301F0E0410B43C2F88430236813F05D
:1019E800007F0DD0626823691B0443EA8213E26812
:1019F80043EA0263A26843EA0273184AC2F88430D1
:101A0800164A136843F08063136000F02DFA064607
:101A1800124B1B6813F0006F06D100F025FA801BEB
:101A28006428F5D9032002E0012D02D0002003B07C
:101A3800F0BD0A4A136823F08053136000F014FACB
:101A48000546064B1B6813F0005F0DD000F00CFA3A
:101A5800401B6428F5D90320E9E700BF003802409D
:101A680000700040FFFCFF0F236813F4002F01D023
:101A7800E26B22B113F4801F1DD0236CDBB9354A09
:101A8800D2F88830D2F88810606903F4403343EA0A
:101A98008013A06943EA006301F0E0410B43C2F8F8
:101AA8008830D2F88C3023F4F853A16A013943EA1C
:101AB8000123C2F88C30236813F4001F03D0E36FAE
:101AC800B3F1006F31D0236813F0080F19D0214A01
:101AD800D2F88810D2F88830606903F4403343EABA
:101AE800801301F070610B43E16943EA0173C2F8A6
:101AF8008830D2F88C3023F44033E16A0B43C2F8C3
:101B08008C30144A136843F08053136000F0ACF92A
:101B18000446104B1B6813F0005F19D100F0A4F9BC
:101B2800001B6428F5D9032081E70A4AD2F8880007
:101B3800D2F888106569236A1B0443EA851300F00C
:101B48007060034301F0E0410B43C2F88830BAE704
:101B580000206CE70038024000230F2B00F2EF80D2
:101B680070B582B061E085685E000324B44025EA60
:101B78000405CC68B4402C438460456825EA020516
:101B88004C68C4F300129A402A4342605BE0DC08C8
:101B9800083450F8246003F0070295000F22AA4089
:101BA80026EA020E0A69AA4042EA0E0240F82420F8
:101BB8005DE0092200E0002202FA0EF22A43023414
:101BC8005F4D45F824205F4A94686FEA0C0224EAC6
:101BD8000C054E6816F4801F01D04CEA0405594CD8
:101BE800A560E46802EA04054E6816F4001F01D0F7
:101BF8004CEA0405534CE560646802EA04054E6843
:101C080016F4003F01D04CEA04054E4C6560246888
:101C180022404D6815F4803F01D04CEA0402494C3B
:101C2800226001330F2B00F2888001229A400C6851
:101C380004EA020C32EA0404F3D14C6804F0030409
:101C4800013C012C8FD94A6802F00302032A09D00B
:101C5800C4685D000322AA4024EA02048A68AA40F4
:101C68002243C2604A6802F00302022A8FD0046845
:101C78004FEA430E032202FA0EF224EA02044A68EB
:101C880002F0030202FA0EF2224302604A6812F4DA
:101C9800403FC6D02C4A546C44F480445464526C7F
:101CA80002F480420192019A9C08A51C244A52F829
:101CB800255003F003024FEA820E0F2202FA0EF2B9
:101CC80025EA0205214A90423FF475AF02F5806289
:101CD800904222D002F58062904220D002F58062C4
:101CE80090421ED002F5806290421CD002F58062BC
:101CF80090421AD002F58062904218D002F58062B4
:101D0800904216D002F58062904214D002F58062AB
:101D180090423FF44EAF0A224EE701224CE70222DE
:101D28004AE7032248E7042246E7052244E7062259
:101D380042E7072240E708223EE702B070BD70473D
:101D480000380140003C01400038024000000240D9
:101D58000AB181617047090481617047436901EAEA
:101D6800030221EA030141EA024181617047000050
:101D780010B582B01B4B1A6C42F080521A641B6C6F
:101D880003F080530193019B174A136843F480338F
:101D9800136000F069F80446134B5B6813F4803F46
:101DA80008D100F061F8001BB0F57A7FF4D9032060
:101DB80002B010BD0C4A136843F40033136000F0FE
:101DC80053F80446084B5B6813F4003F07D100F052
:101DD8004BF8001BB0F57A7FF4D90320E8E7002020
:101DE800E6E700BF003802400070004010B5044626
:101DF8000E4B18784FF47A73B3FBF0F30C4A106863
:101E0800B0FBF3F0FEF768FD68B90F2C01D901208B
:101E18000AE0002221464FF0FF30FEF727FD054B70
:101E28001C60002000E0012010BD00BF0000002061
:101E3800080000200400002008B50320FEF704FD78
:101E48000F20FFF7D3FFFEF773FC002008BD00004A
:101E5800034A1168034B1B780B441360704700BF9B
:101E68003801002000000020014B1868704700BFAF
:101E78003801002038B50446FFF7F6FF0546B4F1EF
:101E8800FF3F02D0044B1B781C44FFF7EDFF401BBB
:101E9800A042FAD338BD00BF00000020034AD2F8A0
:101EA800883043F47003C2F88830704700ED00E0D2
:101EB800DFF834D00D480E490E4A002302E0D4580A
:101EC800C4500433C4188C42F9D30B4A0B4C00237A
:101ED80001E013600432A242FBD3FFF7DFFF00F0FA
:101EE80011F8FEF701FC70470000052000000020F3
:101EF8000C000020A41F00080C0000203C0100205A
:101F0800FEE7000070B50D4D0D4C641BA4100026B3
:101F1800A64209D10B4D0C4C00F020F8641BA4100C
:101F28000026A64205D170BD55F8043B98470136F6
:101F3800EEE755F8043B98470136F2E79C1F000886
:101F48009C1F00089C1F0008A01F000802440346AD
:101F5800934200D1704703F8011BF9E7F8B500BFB9
:101F6800F8BC08BC9E467047F8B500BFF8BC08BC72
:041F78009E467047CA
:101F7C00000000000000000001020304060708092D
:081F8C00000000000102030443
:081F9400A4E2FF7F0100000040
:041F9C00ED0100084B
:041FA000C90100086B
:0C1FA40001000000100000000024F40008
:0400000508001EB918
:00000001FF
